{
  "_format": "hh-sol-artifact-1",
  "contractName": "PayCrypt",
  "sourceName": "contracts/PayCrypt.sol",
  "abi": [
    {
      "anonymous": false,
      "inputs": [
        {
          "indexed": true,
          "internalType": "address",
          "name": "reecipientOf",
          "type": "address"
        },
        {
          "indexed": false,
          "internalType": "address",
          "name": "recipient",
          "type": "address"
        },
        {
          "indexed": false,
          "internalType": "string",
          "name": "recipientName",
          "type": "string"
        }
      ],
      "name": "recipients",
      "type": "event"
    },
    {
      "anonymous": false,
      "inputs": [
        {
          "indexed": true,
          "internalType": "address",
          "name": "from",
          "type": "address"
        },
        {
          "indexed": false,
          "internalType": "address",
          "name": "to",
          "type": "address"
        },
        {
          "indexed": false,
          "internalType": "uint256",
          "name": "amount",
          "type": "uint256"
        },
        {
          "indexed": false,
          "internalType": "string",
          "name": "symbol",
          "type": "string"
        }
      ],
      "name": "transactions",
      "type": "event"
    },
    {
      "inputs": [
        {
          "internalType": "address payable",
          "name": "_to",
          "type": "address"
        },
        {
          "internalType": "string",
          "name": "symbol",
          "type": "string"
        }
      ],
      "name": "_transfer",
      "outputs": [],
      "stateMutability": "payable",
      "type": "function"
    },
    {
      "inputs": [
        {
          "internalType": "address",
          "name": "recipient",
          "type": "address"
        },
        {
          "internalType": "string",
          "name": "name",
          "type": "string"
        }
      ],
      "name": "addRecipient",
      "outputs": [],
      "stateMutability": "nonpayable",
      "type": "function"
    },
    {
      "inputs": [
        {
          "internalType": "address",
          "name": "from",
          "type": "address"
        },
        {
          "internalType": "address",
          "name": "to",
          "type": "address"
        },
        {
          "internalType": "uint256",
          "name": "amount",
          "type": "uint256"
        },
        {
          "internalType": "string",
          "name": "symbol",
          "type": "string"
        }
      ],
      "name": "saveTx",
      "outputs": [],
      "stateMutability": "nonpayable",
      "type": "function"
    }
  ],
  "bytecode": "0x608060405234801561001057600080fd5b5061073e806100206000396000f3fe6080604052600436106100345760003560e01c80631b7b034514610039578063739b538414610055578063a628aeae1461007e575b600080fd5b610053600480360381019061004e91906103a8565b6100a7565b005b34801561006157600080fd5b5061007c60048036038101906100779190610442565b610144565b005b34801561008a57600080fd5b506100a560048036038101906100a091906104d4565b610198565b005b8173ffffffffffffffffffffffffffffffffffffffff166108fc349081150290604051600060405180830381858888f193505050501580156100ed573d6000803e3d6000fd5b503373ffffffffffffffffffffffffffffffffffffffff167f76db3b1e0c138414c92d766944017ceb4aa5916020f18076b217087b242533a98334846040516101389392919061064d565b60405180910390a25050565b3373ffffffffffffffffffffffffffffffffffffffff167fead69450dd2c335e8d5ef2c7b40b87d369e5668b150d8233d4db9eda0b314dc0838360405161018c92919061069a565b60405180910390a25050565b8373ffffffffffffffffffffffffffffffffffffffff167f76db3b1e0c138414c92d766944017ceb4aa5916020f18076b217087b242533a98484846040516101e2939291906106ca565b60405180910390a250505050565b6000604051905090565b600080fd5b600080fd5b600073ffffffffffffffffffffffffffffffffffffffff82169050919050565b600061022f82610204565b9050919050565b61023f81610224565b811461024a57600080fd5b50565b60008135905061025c81610236565b92915050565b600080fd5b600080fd5b6000601f19601f8301169050919050565b7f4e487b7100000000000000000000000000000000000000000000000000000000600052604160045260246000fd5b6102b58261026c565b810181811067ffffffffffffffff821117156102d4576102d361027d565b5b80604052505050565b60006102e76101f0565b90506102f382826102ac565b919050565b600067ffffffffffffffff8211156103135761031261027d565b5b61031c8261026c565b9050602081019050919050565b82818337600083830152505050565b600061034b610346846102f8565b6102dd565b90508281526020810184848401111561036757610366610267565b5b610372848285610329565b509392505050565b600082601f83011261038f5761038e610262565b5b813561039f848260208601610338565b91505092915050565b600080604083850312156103bf576103be6101fa565b5b60006103cd8582860161024d565b925050602083013567ffffffffffffffff8111156103ee576103ed6101ff565b5b6103fa8582860161037a565b9150509250929050565b600061040f82610204565b9050919050565b61041f81610404565b811461042a57600080fd5b50565b60008135905061043c81610416565b92915050565b60008060408385031215610459576104586101fa565b5b60006104678582860161042d565b925050602083013567ffffffffffffffff811115610488576104876101ff565b5b6104948582860161037a565b9150509250929050565b6000819050919050565b6104b18161049e565b81146104bc57600080fd5b50565b6000813590506104ce816104a8565b92915050565b600080600080608085870312156104ee576104ed6101fa565b5b60006104fc8782880161042d565b945050602061050d8782880161042d565b935050604061051e878288016104bf565b925050606085013567ffffffffffffffff81111561053f5761053e6101ff565b5b61054b8782880161037a565b91505092959194509250565b6000819050919050565b600061057c61057761057284610204565b610557565b610204565b9050919050565b600061058e82610561565b9050919050565b60006105a082610583565b9050919050565b6105b081610595565b82525050565b6105bf8161049e565b82525050565b600081519050919050565b600082825260208201905092915050565b60005b838110156105ff5780820151818401526020810190506105e4565b8381111561060e576000848401525b50505050565b600061061f826105c5565b61062981856105d0565b93506106398185602086016105e1565b6106428161026c565b840191505092915050565b600060608201905061066260008301866105a7565b61066f60208301856105b6565b81810360408301526106818184610614565b9050949350505050565b61069481610404565b82525050565b60006040820190506106af600083018561068b565b81810360208301526106c18184610614565b90509392505050565b60006060820190506106df600083018661068b565b6106ec60208301856105b6565b81810360408301526106fe8184610614565b905094935050505056fea264697066735822122008192838a47c7a9c064e9b77623a15b19395599128769a9e06471811613729ec64736f6c63430008090033",
  "linkReferences": {},
  "deployedLinkReferences": {}
}